:100000000C9462000C948A000C948A000C948A0070
:100010000C948A000C948A000C948A000C948A0038
:100020000C948A000C948A000C948A000C948A0028
:100030000C948A000C948A000C948A000C948A0018
:100040000C940E020C948A000C94DC010C94B60102
:100050000C948A000C948A000C948A000C948A00F8
:100060000C948A000C948A000000000025002800EF
:100070002B0000000000240027002A0000000000E0
:1000800023002600290004040404040404040202DA
:100090000202020203030303030301020408102007
:1000A0004080010204081020010204081020000012
:1000B0000008000201000003040700000000000027
:1000C0000000A10311241FBECFEFD8E0DEBFCDBFDB
:1000D00011E0A0E0B1E0ECEAF7E002C005900D927B
:1000E000A432B107D9F721E0A4E2B1E001C01D922A
:1000F000AF3CB207E1F710E0C2E6D0E004C02197C0
:10010000FE010E94CE03C136D107C9F70E945802F2
:100110000C94D4030C940000AF92BF92CF92DF9264
:10012000EF92FF920F931F93CF93DF936C017B01AC
:100130008B01040F151FEB015E01AE18BF08C0173D
:10014000D10759F06991D601ED91FC910190F081B0
:10015000E02DC6010995892B79F7C501DF91CF9173
:100160001F910F91FF90EF90DF90CF90BF90AF90D5
:100170000895FC01538D448D252F30E0842F90E0AD
:10018000821B930B541710F0CF9608950197089592
:10019000FC01918D828D981761F0A28DAE0FBF2F5B
:1001A000B11D5D968C91928D9F5F9F73928F90E0B1
:1001B00008958FEF9FEF0895FC01918D828D981720
:1001C00031F0828DE80FF11D858D90E008958FEF5D
:1001D0009FEF0895FC01918D228D892F90E0805C26
:1001E0009F4F821B91098F739927089582E391E0B5
:1001F0000E94EA0021E0892B09F420E0822F089573
:1002000080E090E0892B29F00E94F60081110C9487
:1002100000000895FC01A48DA80FB92FB11DA35AA9
:10022000BF4F2C91848D90E001968F739927848F16
:10023000A689B7892C93A089B1898C918370806439
:100240008C93938D848D981306C00288F389E02DDA
:1002500080818F7D80830895EF92FF920F931F938B
:10026000CF93DF93EC0181E0888F9B8D8C8D981369
:100270001AC0E889F989808185FF15C09FB7F89475
:10028000EE89FF896083E889F989808183708064C1
:1002900080839FBF81E090E0DF91CF911F910F910C
:1002A000FF90EF900895F62E0B8D10E00F5F1F4F1B
:1002B0000F731127E02E8C8D8E110CC00FB607FC2A
:1002C000FACFE889F989808185FFF5CFCE010E94B8
:1002D0000A01F1CFEB8DEC0FFD2FF11DE35AFF4F1B
:1002E000F0829FB7F8940B8FEA89FB898081806246
:1002F000CFCFCF93DF93EC01888D8823B9F0AA8903
:10030000BB89E889F9898C9185FD03C0808186FDD0
:100310000DC00FB607FCF7CF8C9185FFF2CF80811F
:1003200085FFEDCFCE010E940A01E9CFDF91CF9189
:100330000895CF93DF93FC0101900020E9F73197F6
:10034000AF01481B590BBC0182E391E00E948C0075
:10035000EC0142E050E062E171E082E391E00E9452
:100360008C008C0F9D1FDF91CF9108951F920F92EB
:100370000FB60F9211242F933F934F935F936F9378
:100380007F938F939F93AF93BF93EF93FF9382E3FA
:1003900091E00E940A01FF91EF91BF91AF919F916F
:1003A0008F917F916F915F914F913F912F910F901E
:1003B0000FBE0F901F9018951F920F920FB60F92BD
:1003C00011242F938F939F93EF93FF93E09142011A
:1003D000F09143018081E0914801F091490182FD53
:1003E0001BC0908180914B018F5F8F7320914C01D6
:1003F000821741F0E0914B01F0E0EE5CFE4F958FEB
:1004000080934B01FF91EF919F918F912F910F90CE
:100410000FBE0F901F9018958081F4CF1F920F92FE
:100420000FB60F9211242F933F938F939F93AF9307
:10043000BF938091290190912A01A0912B01B09145
:100440002C013091280123E0230F2D3758F5019618
:10045000A11DB11D209328018093290190932A01A9
:10046000A0932B01B0932C01809124019091250140
:10047000A0912601B09127010196A11DB11D809385
:10048000240190932501A0932601B0932701BF91E9
:10049000AF919F918F913F912F910F900FBE0F9031
:1004A0001F90189526E8230F0296A11DB11DD2CFEB
:1004B000789484B5826084BD84B5816084BD85B53F
:1004C000826085BD85B5816085BD80916E0081604B
:1004D00080936E00109281008091810082608093F1
:1004E00081008091810081608093810080918000F3
:1004F0008160809380008091B10084608093B1001E
:100500008091B00081608093B00080917A00846017
:1005100080937A0080917A00826080937A00809143
:100520007A00816080937A0080917A00806880935D
:100530007A001092C100E0914201F091430182E003
:100540008083E0913E01F0913F011082E0914001F3
:10055000F091410187E6808310924A01E0914601C3
:10056000F091470186E08083E0914401F0914501DC
:10057000808180618083E0914401F0914501808118
:1005800088608083E0914401F0914501808180681A
:100590008083E0914401F091450180818F7D8083CB
:1005A000CDE9D0E0FE01249109E810E0F801849142
:1005B0008823C9F090E0880F991FFC01EE58FF4F87
:1005C000A591B491FC01E859FF4F459154919FB713
:1005D000F8943C91822F809583238C93FA0180813B
:1005E000282B20839FBF91EBE92E90E0F92E20E08D
:1005F000C22E20E0D22EBB24B394F7018491FE01D9
:100600009491F8012491211145C08091310181110B
:1006100035C02FB7F8948091290190912A01A091BB
:100620002B01B0912C012FBF40912D0150912E0133
:1006300060912F0170913001841B950BA60BB70BB5
:1006400085369105A105B105C8F02FB7F8948091C2
:10065000290190912A01A0912B01B0912C012FBF6B
:1006600080932D0190932E01A0932F01B093300120
:1006700085E191E00E949901B0923101C114D10449
:1006800009F4BBCF0E94F600882309F4B6CF0E947C
:100690000000B3CF882351F0833009F43BC080F5CC
:1006A000813009F43DC0823009F43EC0E22FF0E011
:1006B000EE0FFF1FE458FF4FA591B4912C9180914C
:1006C0003101922309F4A1CF8823C1F210923101A4
:1006D0002FB7F8948091290190912A01A0912B01C4
:1006E000B0912C012FBF80932D0190932E01A093E8
:1006F0002F01B09330018BE191E00E949901BECFB0
:100700008730A9F08830C9F0843081F6809180006C
:100710008F7D03C0809180008F7780938000C6CF4B
:1007200084B58F7784BDC2CF84B58F7DFBCF809198
:10073000B0008F778093B000B9CF8091B0008F7DEB
:10074000F9CFE2E3F1E01382128288EE93E0A0E0B9
:10075000B0E084839583A683B78384E091E091839E
:10076000808385EC90E09587848784EC90E0978780
:10077000868780EC90E0918B808B81EC90E0938B6E
:10078000828B82EC90E0958B848B86EC90E0978B4B
:10079000868B118E128E138E148E0895EE0FFF1F0E
:0C07A0000590F491E02D0994F894FFCF2F
:1007AC00000000002C018C00B9007901EA00C8009F
:1007BC00DC000D0A0070726573730072656C656104
:0407CC007365000051
:00000001FF
